:020000040800F2
:10000000E0040020490100081B170008BD15000886
:10001000191700080D050008491900080000000024
:100020000000000000000000000000000D180008A3
:100030000F050008000000000B1800080F1800084A
:100040006301000863010008630100086301000800
:1000500063010008630100086301000863010008F0
:1000600063010008630100086301000863010008E0
:1000700063010008630100086301000863010008D0
:1000800063010008630100086301000863010008C0
:1000900063010008630100086301000811050008FE
:1000A00063010008630100086301000863010008A0
:1000B0006301000863010008630100086301000890
:1000C0006301000863010008630100086301000880
:1000D0006301000863010008630100086301000870
:1000E0006301000863010008630100086301000860
:1000F0006301000863010008630100086301000850
:10010000630100086301000863010008630100083F
:10011000630100086301000863010008630100082F
:10012000630100086301000863010008630100081F
:10013000DFF810D000F06EF9004800478919000878
:10014000AFF30080E00400200648804706480047DF
:10015000FEE7FEE7FEE7FEE7FEE7FEE7FEE7FEE777
:10016000FEE7FEE78D18000831010008D2B201E079
:1001700000F8012B491EFBD270470022F6E710B5AC
:1001800013460A4604461946FFF7F0FF204610BD05
:10019000F0B480EA0102D40F4200B2EB410F02D268
:1001A0000246084611464A0042D0C30DDDB2C1F3F3
:1001B000C752AD1A202D35DAC1F3160141F4000201
:1001C00004B15242C5F1200602FA06F12A41104458
:1001D000B3EBD05F23D0C4B1012DA0EBC35009DC39
:1001E000F0BC4FF0004202EAC352DBB200F500005F
:1001F00000F0E1B8400000F1807000EBC350A0F1C6
:10020000807040EAD170490009E0490841EAC071B4
:10021000A0EBC35000F50000400800EBC350F0BC59
:1002200000F0C0B86142012202EB4101001BF6E779
:10023000F0BC704781F00041AAE780F00040A7E7DA
:1002400080EA010210B502F00043400022D04A00CB
:100250001FD0010E01EB1261C0F35600C2F356022B
:1002600040F4000042F40002A0FB022000047F39A9
:10027000140400D0401C50EA124001D44000491E32
:10028000C2B20C0604EBD010401C4008802A02D0F9
:1002900003E0002010BD20F00100002900DA00205A
:1002A000184310BD30B480EA010202F0004530F07E
:1002B000004221F0004013D090B1C30DD40DC2F321
:1002C0001601C0F31600E41A41F4000140F40002E4
:1002D0007D34914201D3641C00E04900002C02DA15
:1002E00030BC002070474FF400000023914201D33E
:1002F000891A034340084FEA4101F7D151B19142B5
:1003000002D14FF0004105E002D24FF0010101E0BF
:100310006FF0010103EBC450284430BC00F042B838
:10032000420005D0C0F3C7525242914201DC002086
:10033000704700EBC1507047C10F80EAE07008447D
:10034000CA079623002100F036B8962300221146F2
:1003500000F031B820F00040C10DC0F3160040F4A9
:1003600000007F2901DA00207047962903DCC1F1E3
:100370009601C8407047963988407047002801DBD5
:10038000C0F10040002901DBC1F10041814270470A
:10039000002801DBC0F10040002901DBC1F1004170
:1003A000884270470029A8BF7047401C490008BF19
:1003B00020F00100704710B4B0FA80FC00FA0CF095
:1003C00050EA010404BF10BC704749B1CCF12004CD
:1003D00021FA04F411FA0CF118BF0121214308435A
:1003E000A3EB0C01CB1D4FEA00614FEA102042BF86
:1003F000002010BC704700EBC35010440029A4BF7C
:1004000010BC7047401C490008BF20F0010010BC20
:1004100070470000064C074D06E0E06840F001031D
:1004200094E8070098471034AC42F6D3FFF784FEF7
:10043000681A0008881A000870B5044600688168C8
:10044000C943C90717D1816821F00101816000F01B
:100450005BFC05460AE000BF00F056FC401B02288A
:1004600004D920688068C043C00706D0206880682F
:10047000C043C007F0D0002070BDA06A40F010005B
:10048000A062E06A40F00100E062012070BD00005F
:10049000F8B500260446009600688168C943C9077C
:1004A0002DD0816841F0010181601648164900682D
:1004B000B0FBF1F000E0401E00900028FBD100F0FE
:1004C00023FC054616E000BF00F01EFC401B02287E
:1004D00010D920688068C043C0070BD0A06A40F0E4
:1004E0001000A062E06A40F00100E06284F824603D
:1004F0000120F8BD20688068C043C007E4D1002017
:10050000F8BD00001C00002040420F00FEE77047CD
:10051000202000F0EBBA72B6FEE70000F8B5002428
:10052000009490F824202546012A12D0012280F858
:1005300024204A681F23072A0DD20668776B521EB3
:1005400002EB820293409F430B6893401F43776303
:1005500019E00220F8BD06680D2A0AD2376BD21FB7
:1005600002EB820293409F430B6893401F43376323
:1005700009E0F76A0D3A02EB820293409F430B6851
:1005800093401F43F7620A68072306680A2A0AD3C2
:10059000F7680A3A02EB420293409F438B6893400C
:1005A0001F43F76008E0376902EB420293409F4324
:1005B0008B6893401F4337610A68102A01D0112AC3
:1005C00020D1124B02689A4217D193681B0219D4AA
:1005D000936843F4000393600968102912D10C4911
:1005E0000C4A0968B1FBF2F101EB8101490000E01E
:1005F000491E00910029FBD104E0816A41F02001ED
:100600008162012480F824502046F8BD0024014076
:100610001C00002040420F000068C06C70470000C2
:100620002DE9F04104004FF000057FD0A06A0026BC
:1006300028B9E66284F82460204600F081F820465C
:10064000FFF7FAFEA16AC90600D420B1A06A40F003
:100650001000A0626AE0A16A21F4885141F0020111
:10066000A162334923688B42E16904D1B1F5402F7F
:1006700001D14FF40021277B4FF4807C41EA4702EF
:1006800061680A43A168614508D0012906D00021AC
:1006900094F814E0BEF1010F02D00AE06146F7E7DA
:1006A000C7B1A76A47F02007A762E76A47F00107CA
:1006B000E7625F6827F469470F435F6023689968C2
:1006C0001C4F394011439960A16861450BD0012945
:1006D00009D00CE0DFF860E0A7690EEB47370F4365
:1006E00047F40061E5E7218A0D05A5F5801521682D
:1006F000CB6A23F470032B43CB62216889680F4BCC
:100700001940914208D1E662A16A21F0020141F04C
:100710000101A162BDE8F081A06A20F0020040F072
:100720001000A062E06A40F00100E0620120F1E701
:10073000003C0140FDF7E1FF00E0FFFFFE0E1FFF60
:1007400000B585B0002100910191029103910068EC
:100750000E49884218D10E48816941F400718161C7
:10076000816901F400710491816941F004018161A2
:100770008069694600F00400049001200090032085
:100780000190044800F0BEF905B000BD002401400E
:1007900000100240000801402DE9F84300270D46F3
:1007A0000446009700F0B0FA804620688168C905C9
:1007B00008D5A06A40F02000A06284F824700120CF
:1007C000BDE8F8834168C90503D4C06A10F4700F0E
:1007D0002AD0022000F036FB3B490968B1FBF0F655
:1007E0002068036939490B424FEA61014FEAA112BF
:1007F0001FD1C3684FEA611C13EA0C0F19D10369BA
:100800000B4225D1C068104222D1142023E0681C7D
:100810000AD02DB100F078FAA0EB0800A84203D965
:1008200020680068800725D5206800688007EED51D
:100830002DE003690B4202D1C168114206D0026962
:1008400023490A4206D1C068084203D1542002E07D
:10085000292000E0FC204643009816E0681C11D0D7
:100860002DB100F051FAA0EB0800A8420AD9009877
:10087000B04207D2A06A40F00400A06284F824705D
:1008800003209DE70098401C0090B042E6D3216809
:100890006FF012000860A06A40F40070A062206847
:1008A0008068C0F3424007280CD1207B50B9A06A71
:1008B00020F48070A062A06AC00403D4A06A40F053
:1008C0000100A06200207BE71C0000202449922444
:1008D0004992240070B5044690F8240001280DD0F8
:1008E000012084F824002046FFF7D2FD02004FF0DB
:1008F000000005D084F82400104670BD022070BDB1
:10090000A16A40F20123994341F48071A1621F4D15
:1009100023681F49AB4218D10E6816F4702F14D00B
:10092000A66A46F48016A6620E68760505D5A66A04
:1009300026F4005646F48056A662A66AF6040AD546
:10094000E66A26F00606E66206E0A66A26F4801647
:10095000A6625E68E9E7E06284F824006FF00200B6
:10096000186020688368C3F34243072B05D1A8426F
:1009700008D1096811F4702F04D0816841F4801106
:100980008160B9E7816841F4A001F9E700280140DE
:100990000424014070B500B3F9B14379012B1ED096
:1009A000012646710223037105682C6802F01003CA
:1009B00040F6FE729A409443D1E900210A439A40DE
:1009C00022432A6001680A68C0249C40A2430A604E
:1009D000067100214171084670BD012070BD0220E2
:1009E00070BD70B5040003D02079002510B105E07A
:1009F000012070BD6571204600F008F802202071CA
:100A0000256101202071002070BD000000B585B077
:100A10000021009101910291039100680E498842E2
:100A200018D10E48C16941F00051C161C16901F09E
:100A300000510491816941F0040181618069694636
:100A400000F004000490102000900320019004485E
:100A500000F058F805B000BD0074004000100240DE
:100A60000008014018B50024009440B100680090CF
:100A7000104431B1143000900360002018BD0120F3
:100A800018BD0830F7E770B508B34279012A20D0C5
:100A900001224271022303710468266801F01003E9
:100AA00002FA03F52E4326600029016813D00C6872
:100AB00004F470153C249C40A54203D14B6843F0DC
:100AC00002034B60027100214171084670BD012094
:100AD00070BD022070BD0B68C3F383030F2BF1D1EF
:100AE0004B6843F00103ECE770470000044910B580
:100AF0000A68024202D00860FFF7F6FF10BD00004E
:100B0000140401402DE9F84FDFF8C8910024A9F141
:100B1000040B23460F2709F1040AABF1040ED1E0C0
:100B20000125A54006EA0502AA4276D1DFF8A8C150
:100B30004E68A6EB0C0866452BD00DDC032E34D096
:100B400005DC36B3012E19D0022E2FD11BE0112E59
:100B500016D0122E2AD119E0B8F5881F19D006DC5C
:100B6000B8F5803F15D0B8F5801F1FD111E0B8F55A
:100B7000001F0ED0B8F5041F18D10AE0CB6815E0AD
:100B8000CB681B1D12E0CB6808330FE0CB680C3339
:100B90000CE08B682BB1012B4FF0080303D04561AB
:100BA00004E0042302E0056100E00023FF2A01D8ED
:100BB000064601E000F104064FEA840501D9A5F1DB
:100BC0002005D6F8008007FA05FC28EA0C0803FA8D
:100BD00005F548EA0508C6F800804D68ED0070D5B7
:100BE0003E4DAE6946F00106AE61AD6924F00306E4
:100BF00005F0010500953A4D06EB050CDCF80850B0
:100C0000A607360F07FA06F825EA0805DFF8D480AC
:100C1000404503D14FF0000825E052E0DFF8C880DE
:100C2000404502D14FF001081DE0DFF8C08040458B
:100C300002D14FF0020816E0DFF8B480404502D13F
:100C40004FF003080FE0DFF8AC80404502D14FF0D1
:100C5000040808E0DFF8A080404502D14FF0050805
:100C600001E04FF0060808FA06F848EA0508CCF853
:100C700008804D68D9F80060ED024D4601D5164355
:100C800000E096432E604D68DAF80060AD025546EC
:100C900001D5164300E096432E604D68DBF80060F6
:100CA000AD035D4601D5164300E096432E604D68C6
:100CB000DEF80060ED03754601D5164300E096436B
:100CC0002E60641C0A681646E2407FF429AFBDE836
:100CD000F88F0000080401400000111000100240CD
:100CE0000000014000080140000C014000100140DC
:100CF0000014014000180140001C01400AB10161CC
:100D000070470904FBE70000014880687047000055
:100D10001000002002488168027811448160704709
:100D200010000020074810B5016841F01001016073
:100D3000032000F075F80F2000F006F800F024F80A
:100D4000002010BD0020024070B50D4D04464FF448
:100D50007A712878B1FBF0F00A490968B1FBF0F02C
:100D600000F0AEFB48B9102C07D200222146501EDD
:100D700000F036F800206C6070BD012070BD0000EE
:100D8000100000201C0000200C4808B5816941F0CB
:100D900001018161816901F001010091C16941F0A6
:100DA0008051C161C06900F08050009004484168E2
:100DB00021F0E06141F00071416008BD0010024087
:100DC00000000140002809DB00F01F0201219140D2
:100DD0004009800000F1E020C0F8001170470000D9
:100DE000F0B40E4B1B680C46C3F30223C3F1070596
:100DF000042D00D90425191D072901D2002300E084
:100E0000DB1E012606FA05F1491E214099409E404D
:100E1000761E16403143F0BC00F097BD0CED00E0AB
:100E2000064900F0070208684FF6FF03184040EA41
:100E30000220034A10430860704700000CED00E0F8
:100E40000000FA0510B501460020284C04292FD0D7
:100E50000BDC012930D0022929D100F06BF961683F
:100E6000C1F38131491C49001FE0082920D0102915
:100E70001DD161682268D20119D51D48C1F3834292
:100E8000C903805C0AD56168194AC1F34041921ECA
:100E9000515C184AB2FBF1F1484301E0164948435E
:100EA0006168490203D440000321B0FBF1F010BD9A
:100EB000BDE8104000F04EB9226AC2F301210129B9
:100EC00003D1920701D5C80310BD022905D1626A7A
:100ED000920702D549F6404010BD0329FCD1216894
:100EE0008903F9D54FF2244010BD000000100240E4
:100EF000401A000800127A0000093D002DE9F8436D
:100F000005460078354CC00754D0E0690026C00083
:100F100008D4E06940F08050E061E069012600F00B
:100F2000805000902E480168C90512D4016880469F
:100F300041F480710160FFF7E7FE074605E000BF5E
:100F4000FFF7E2FEC01B642823D8D8F80000C005D4
:100F5000F6D5206A10F4407021D0A98801F44071C0
:100F600081421CD0206A1F49012220F440700A608F
:100F700000220A602062C00711D0FFF7C5FE0746B5
:100F800041F2883808E000BFFFF7BEFEC11B4145B3
:100F900002D90320BDE8F883206A8007F4D5206ACF
:100FA000696820F44070084320621EB1E06920F0B7
:100FB0008050E0612878800705D56068A96820F432
:100FC0004040084360602878C00605D560686969BC
:100FD00020F48000084360600020DBE7001002403E
:100FE00000700040400442422DE9F0470F460500E2
:100FF00061D0434E306800F00700B84209D2306833
:1010000020F0070038433060306800F00700B84235
:1010100051D128683B4C810712D5400703D5606841
:1010200040F4E06060602878000703D5606840F411
:10103000605060606068A96820F0F000084360605C
:101040002878C00728D06868012810D021680228B5
:1010500010D0890700292EDA616821F003010143CD
:101060006160FFF751FE804641F288390DE021684A
:101070008903EFE78901EDE7FFF746FEA0EB0801E2
:10108000494502D90320BDE8F0876068696800F02F
:101090000C00B0EB810FEFD1306800F00700B842D0
:1010A0000BD9306820F0070038433060306800F01A
:1010B0000700B84201D00120E5E72878400705D5B0
:1010C0006068E96820F4E060084360602878000701
:1010D00006D56068296920F4605040EAC10060606C
:1010E00000F038F86168084AC1F30311515CC84048
:1010F0000649086006480068FFF726FE0020C2E7A0
:101100000020024000100240501A00081C0000207D
:10111000140000200448054900684968044AC1F3E6
:101120000221515CC84070471C00002000100240A2
:10113000601A00080448054900684968044AC1F378
:10114000C221515CC84070471C00002000100240C2
:10115000601A00080E4A51680E4801F00C03042B77
:1011600011D0082B0FD10C48C1F38343C903C05CD5
:101170000AD55168084AC1F34041921E515C054AA4
:101180005043B0FBF1F070470449484370470000FA
:101190000010024000127A002E1A000800093D00DB
:1011A0002DE9F84F040070D02078C04DC00749D019
:1011B0006868C0F38100012807D06868C0F3810027
:1011C000022809D16868C00306D52868800339D58C
:1011D00060680028E7D035E06068B0F5803F0BD04C
:1011E00010B1B0F5A02F11D0286820F4803028600D
:1011F000286820F4802002E0286840F480302860CD
:10120000606890B1FFF780FD06460AE0286840F468
:1012100080202860F0E700BFFFF776FD801B642880
:1012200073D828688003F7D50CE0FFF76DFD0646FC
:1012300005E000BFFFF768FD801B6428F0D8286830
:101240008003F7D420789A4E80074FF001094FF0C1
:10125000000839D5686810F00C0F07D06868C0F333
:101260008100022809D16868C00306D42868800775
:1012700014D52069012808D110E02069B0B1C6F862
:101280000090FFF741FD074605E00AE1FFF73CFD4E
:10129000C01B0228C4D828688007F7D52868616970
:1012A00020F0F80040EAC10028600DE0C6F8008098
:1012B000FFF72AFD074604E0FFF726FDC01B0228C2
:1012C00023D828688007F7D4207800072CD57948E0
:1012D000A169D9B1C0F80090FFF716FD074604E0F8
:1012E000FFF712FDC01B02280FD8686A8007F7D5E8
:1012F00071484FF4FA510068B0FBF1F0009000BF64
:101300000098411E0091FAD20EE080E0C0F8008003
:10131000FFF7FAFC074604E0FFF7F6FCC01B0228C3
:1013200075D8686A8007F7D42078400760D5E869E7
:101330000027C00008D4E86940F08050E861E869FF
:10134000012700F0805000905C480168C90513D463
:101350000168834641F480710160FFF7D5FC824645
:1013600006E000BFFFF7D0FCA0EB0A0064284ED8CF
:10137000DBF80000C005F5D5E06801280AD008B107
:10138000052813D0286A20F001002862286A20F07E
:10139000040002E0286A40F001002862E06841F29F
:1013A000883B98B1FFF7B0FC82460BE0286A40F01A
:1013B00004002862EEE700BFFFF7A6FCA0EB0A01DD
:1013C00059455AD8286A8007F6D50CE0FFF79CFCEF
:1013D000824605E0FFF798FCA0EB0A0159454CD87E
:1013E000286A8007F6D41FB1E86920F08050E861D0
:1013F000E06988B36968C1F38101022944D00228F9
:10140000C6F8608004D0FFF77FFC044638E034E083
:10141000FFF77AFC074604E0FFF776FCC01B0228C2
:101420002BD828688001F7D4206AB0F5803F05D119
:101430006868A16820F4003008436860D4E90801B6
:101440000843696821F4741108436860C6F8609025
:10145000FFF75AFC044606E025E000BFFFF754FC06
:10146000001B022809D828688001F7D51BE000BFBF
:10147000FFF74AFC001B022802D90320BDE8F88FC1
:1014800028688001F4D40EE00128F7D06868226A49
:1014900000F48031914204D1616A00F470108842F6
:1014A00001D00120EAE70020E8E700000010024038
:1014B00000004242800442421C00002000700040B4
:1014C00010B5401EB0F1807F01D3012010BD4FF058
:1014D000E02460610F21601700F037FA0020A0615E
:1014E00007202061002010BD70B5040004D094F8DE
:1014F0004100002510B106E0012070BD84F8405085
:10150000204600F023F8242084F841002068C168B8
:1015100021F40051C160204600F0BAF92068016949
:1015200021F4904101612068416921F02A01416163
:101530002068C16841F40051C1606564202084F8CE
:10154000410084F842006563002070BD30B585B06D
:101550000024009401940294039400681449884282
:1015600024D11448816941F480418161816901F489
:1015700080410491816941F00401816180690E4DCF
:1015800000F0040004904FF40070009002200190DD
:101590000320039069462846FFF7B4FA2815CDE9E1
:1015A0000004694628460294FFF7ACFA05B030BD46
:1015B000003801400010024000080140FEE7000032
:1015C0003EB5002410480094019402940D498460B3
:1015D000016004730475012505614FF460214460C6
:1015E000C161FFF71DF808B1FEF795FFCDE9004591
:1015F000694605480294FEF791FF002801D0FEF7E6
:101600008AFF3EBD00240140500000201CB500248C
:101610000C4900940A48019408600846FFF7E1F974
:1016200008B1FEF778FF009400226946054801944E
:10163000FFF7B0F9002801D0FEF76DFF1CBD0000D8
:10164000007400408000002070B586B0002000903B
:101650000190029003901E48816941F01001816160
:10166000816901F010010491816941F020018161DB
:10167000816901F020010491816941F004018161D7
:101680008069012200F00400124E150204902946E0
:101690003046FFF733FB202000900F480124CDE9AE
:1016A000010469460D48FFF72DFA0320CDE90240F9
:1016B000CDE9005469463046FFF724FA00220121A3
:1016C0001720FFF78DFB1720FFF77CFB06B070BDDE
:1016D00000100240000801400000211000100140ED
:1016E0000C4810B50A4901604FF4E1314160002116
:1016F00081600C22C160C0E904128161C161FFF701
:10170000F3FE002803D0BDE81040FEF704BF10BD73
:101710000038014094000020FEE7FEE70021016050
:1017200041608160C160C1614FF07E520162C0E9D9
:1017300004218161034A0249C0E90912C16270476C
:101740000000C8420000C8C22DE9F0410446D4E9B7
:1017500000052946FEF76EFDA0602846616AFEF787
:1017600017FE0CD2A068E16A20F00040FEF710FEE0
:1017700026D3A168012511F1FF4F11D221E0A16A02
:101780006068FEF7FBFD10D2A068E16A20F000401F
:10179000FEF7FEFD14D3A1680125B1F5000F10DBA3
:1017A000206AFEF7F5FC20620BE00121E06AFEF7FB
:1017B000B7FD0146A06820F00040FEF7E9FD21D208
:1017C0000025D4E902613046FEF734FDA169FEF739
:1017D00037FD07462846FEF7AFFD6169FEF730FD8D
:1017E000216AFEF72DFD054631462069FEF728FDEA
:1017F0002946FEF7CDFC3946FEF7CAFCE660E061FB
:10180000BDE8F0810125A168CAE770477047FFF77E
:1018100081BA30B595B028216846FEF7AEFC142198
:101820000AA8FEF7AAFC18210FA8FEF7A6FC0121C2
:101830000804CDE900100025029502240491CDE9A9
:1018400007404FF4E01009906846FFF7A9FC08B183
:1018500072B6FEE70AA90F2081E831004FF48060DC
:10186000CDE90D0502210AA8FFF7BEFB08B172B64B
:10187000FEE74FF4004011900F940FA8FFF73EFBD6
:10188000002801D072B6FEE715B030BD70470000E9
:1018900070B5044600680169E26821F440511143C3
:1018A00001612169A0680843616908432168CA6829
:1018B00041F20C639A430243CA6020684169A269FD
:1018C00021F44071114341611E492068884202D1D0
:1018D000FFF730FC01E0FFF71DFC00EBC00101EB5E
:1018E0000012606864218000B2FBF0F3B3FBF1F3F7
:1018F0006FF018067343B2FBF0F5B2FBF0F605EBA0
:101900008305322303EB0515B5FBF1F5B6FBF1F6C4
:1019100005F0F00505EB0615B2FBF0F6B2FBF0F0B2
:10192000B0FBF1F06FF01802504306EB800003EBC0
:101930000010B0FBF1F0216800F00F00284488602F
:1019400070BD000000380140FEE70907090E0028BD
:1019500004DB00F1E02080F80014704700F00F0075
:1019600000F1E02080F8141D704702E008C8121F43
:1019700008C1002AFAD170477047002001E001C178
:10198000121F002AFBD17047FFF7CCF9FFF741FF88
:101990002248FFF7C3FEFFF757FEFFF711FEFFF7E0
:1019A00035FEFFF79DFE00211D48FFF76CF8002370
:1019B0001A4619461A48FFF755F8184F194C6FF098
:1019C0000B081948FEF786FF0A211748FEF7E4FEC8
:1019D0001548FEF721FE86B2268041466068FEF774
:1019E0009FFC05463046FEF7B0FC2946FEF728FC72
:1019F000A06038600948FFF7A7FE0C21E060FEF701
:101A00008FFC6168FEF74EFCFEF7A4FC83B2002257
:101A1000638011460248FFF725F8D2E72000002036
:101A2000800000200000002050000020010202037E
:101A30000405060708090A0B0C0D0E0F1010010211
:101A400002030405060708090A0B0C0D0E0F1010FF
:101A5000000000000000000001020304060708095E
:101A60000000000001020304881A000800000020A2
:101A7000200000006A190008A81A000820000020B1
:101A8000C00400007A1900080000000033335340FE
:101A90000000000000000000010000001000000035
:081AA000000000000024F40026
:0400000508000131BD
:00000001FF
